:020000040000FA
:100000000C9462000C948A000C948A000C948A0070
:100010000C948A000C948A000C948A000C948A0038
:100020000C948A000C948A000C948A000C948A0028
:100030000C948A000C948A000C948A000C948A0018
:100040000C94D8040C948A000C948A000C948A00B6
:100050000C948A000C948A000C948A000C948A00F8
:100060000C948A000C948A000000000024002700F1
:100070002A0000000000250028002B0000000000DE
:1000800023002600290004040404040404040202DA
:100090000202020203030303030301020408102007
:1000A0004080010204081020010204081020000012
:1000B0000008000201000003040700000000000027
:1000C0000000720511241FBECFEFD8E0DEBFCDBF08
:1000D00011E0A0E0B1E0E2EAFBE002C005900D9281
:1000E000AC33B107D9F721E0ACE3B1E001C01D9218
:1000F000AF35B207E1F710E0C2E6D0E004C02197C7
:10010000FE010E94C905C136D107C9F70E94220528
:100110000C94CF050C940000833081F028F48130DA
:1001200099F08230A9F008958730A9F08830C9F09D
:100130008430B1F4809180008F7D03C08091800075
:100140008F7780938000089584B58F7784BD08955C
:1001500084B58F7DFBCF8091B0008F778093B00006
:1001600008958091B0008F7DF9CFCF93DF93282F32
:1001700030E0F901E255FF4F8491F901E656FF4F57
:10018000D491F901EA57FF4FC491CC23A1F081111A
:100190000E948C00EC2FF0E0EE0FFF1FE458FF4FA1
:1001A000A591B491EC91ED2381E090E009F480E019
:1001B000DF91CF91089580E090E0FACF1F93CF9325
:1001C000DF93282F30E0F901E255FF4F8491F901C8
:1001D000E656FF4FD491F901EA57FF4FC491CC2363
:1001E000A9F0162F81110E948C00EC2FF0E0EE0F89
:1001F000FF1FEE58FF4FA591B4918FB7F894EC9183
:10020000111108C0D095DE23DC938FBFDF91CF9111
:100210001F910895DE2BF8CFCF93DF9390E0FC0180
:10022000E656FF4F24918A579F4FFC018491882303
:10023000D1F090E0880F991FFC01E859FF4FA5917C
:10024000B491FC01EE58FF4FC591D491623071F426
:100250009FB7F8943C91822F809583238C93E881FB
:100260002E2B28839FBFDF91CF9108958FB7F894ED
:10027000EC912E2B2C938FBFF6CF3FB7F894809143
:10028000430190914401A0914501B091460126B5EA
:10029000A89B05C02F3F19F00196A11DB11D3FBFBE
:1002A000BA2FA92F982F8827BC01CD01620F711D8D
:1002B000811D911D42E0660F771F881F991F4A9587
:1002C000D1F708958F929F92AF92BF92CF92DF9213
:1002D000EF92FF924B015C010E943D016B017C019A
:1002E0000E943D016C197D098E099F09683E73408B
:1002F00081059105A8F321E0821A9108A108B108AF
:1003000088EEC80E83E0D81EE11CF11C8114910414
:10031000A104B10429F7FF90EF90DF90CF90BF9038
:10032000AF909F908F900895AF92BF92CF92DF923F
:10033000EF92FF920F931F93CF93DF936C017B019A
:100340008B01040F151FEB015E01AE18BF08C0172B
:10035000D10759F06991D601ED91FC910190F0819E
:10036000E02DC6010995892B79F7C501DF91CF9161
:100370001F910F91FF90EF90DF90CF90BF90AF90C3
:100380000895089590E080E0089581E00E94B5000E
:10039000892BB9F082E00E94B500892BF9F083E047
:1003A0000E94B500892B59F464E170E080E090E090
:1003B0000E94620183E00E94B500892BE1F080E099
:1003C000089564E170E080E090E00E94620181E0C5
:1003D0000E94B500892BF1F681E0089564E170E098
:1003E00080E090E00E94620182E00E94B500892BCB
:1003F000B1F682E0089583E008950E94C50181115D
:10040000FCCF64E170E080E090E00E9462010E9415
:10041000C5018111F2CF0895FC0101900020E9F798
:100420003197AF01481B590BBC0187E491E00C9454
:1004300094018F929F92AF92BF920F931F93CF938D
:10044000DF93CDB7DEB7A1970FB6F894DEBF0FBE2E
:10045000CDBF19A2423008F44AE08E010F5D1F4F54
:10046000842E912CB12CA12CA50194010E94A705EA
:10047000E62FB901CA01EA30F4F4E05DD801EE9349
:100480008D01232B242B252B79F790E080E010970A
:1004900019F0CD010E940C02A1960FB6F894DEBFB0
:1004A0000FBECDBFDF91CF911F910F91BF90AF9045
:1004B0009F908F900895E95CE1CFCF93DF93EC019B
:1004C00060E08E810E94DE0061E08E810E94DE008D
:1004D00060E08E810E94DE008BE891E00197F1F7E9
:1004E000DF91CF910895CF92DF92EF92FF920F9319
:1004F0001F93CF93DF936C017C0187E0E80EF11C22
:10050000D0E0C0E0062F10E0B8010C2E02C07595B7
:1005100067950A94E2F76170F70181917F010E946B
:10052000DE002196C430D10579F7C601DF91CF9165
:100530001F910F91FF90EF90DF90CF900C945D0290
:10054000CF92DF92EF92FF920F931F93CF93DF939F
:10055000EC01F62E642F8C810E94DE008D818F3F8E
:1005600019F060E00E94DE000F2D10E08F8584FFFF
:1005700025C06E0187E0C80ED11CF12CE12CB8011A
:100580000E2C02C0759567950A94E2F76170F6012A
:1005900081916F010E94DE00FFEFEF1AFF0A88E0F1
:1005A000E816F10461F7CE01DF91CF911F910F9111
:1005B000FF90EF90DF90CF900C945D02B80184E043
:1005C000759567958A95E1F7CE010E9473026F2DAC
:1005D000CE01DF91CF911F910F91FF90EF90DF90AF
:1005E000CF900C94730240E0682F87E491E00C9464
:1005F000A00281E00E94F3028BE39FE10197F1F7F3
:100600000895CF93DF93613029F09091560198605F
:100610009093560160935A0110925B0190E490937D
:100620005C0180935D01805C80935E0161E080915C
:100630004B010E940C0180914C018F3F19F061E049
:100640000E940C0161E080914D010E940C01C7E401
:10065000D1E09E01275431408091560184FD0BC0AA
:1006600084E090E021962817390744F461E08E81F8
:100670000E940C01EECF88E090E0F4CF8BE39DE088
:100680000197F1F760E080914B010E94DE0060E08D
:1006900080914D010E94DE0080914C018F3F19F046
:1006A00060E00E94DE008091560184FD34C063E06A
:1006B00087E491E00E947302CBE4D6E4CE01019777
:1006C000F1F763E087E491E00E9473022197F1F76C
:1006D00063E087E491E00E94730283E592E0019772
:1006E000F1F762E087E491E00E9473028091560185
:1006F00080620E94F30284E0809357018CE00E94A4
:10070000F3020E94F90282E08093580186E0DF91B3
:10071000CF910C94F30280620E94F3028BE496E482
:100720000197F1F78091560180620E94F30283E500
:1007300092E00197F1F78091560180620E94F302E6
:10074000D5CF643008F063E090915A01691710F03A
:100750006FEF690FE62FF0E0E95BFE4F9489890F98
:1007600080680C94F3020E94F90260E082E00E942B
:10077000A1038DE091E00E940C0261E082E00E9402
:10078000A10383E191E00E940C0262E082E00E94FA
:10079000A10388E191E00C940C0241E00E94A002C8
:1007A00081E090E0089541E0682F87E491E00E94A5
:1007B000A00281E090E008950E94B30360913C01A3
:1007C00080E00E94A1038EE30E94D3030E94C50132
:1007D000182F8823D9F3C0913C01D0913D016C2F93
:1007E00080E00E94A10380E20E94D303123009F44A
:1007F00075C0133009F45FC0113041F7C130D10525
:1008000009F471C0C230D10509F47CC0CD2B09F0C8
:100810004FC090E080E00E9491058093000161E06C
:100820008DE00E94DE000E94F90261E089E00E94F2
:10083000A1038DE191E00E940C0262E082E00E943F
:10084000A10380E291E00E940C02C0900001D12C33
:10085000F12CE12C62E08DE00E94A1034AE0C70187
:10086000B6010E94190268EE73E080E090E00E94F9
:10087000620181E0C81AD108E108F1088FEFC816BB
:10088000D806E806F80631F760E08DE00E94DE0049
:100890000E94F90262E082E00E94A1038CE291E0F2
:1008A0000E940C0260ED77E080E090E00E9462011F
:1008B0000E94B30308C01C161D062CF42197D09388
:1008C0003D01C0933C0160913C0180E00E94A10386
:1008D0008EE30E94D3030E94FD0178CFC230D10580
:1008E00094F72196ECCF0E94F90263E081E00E9428
:1008F000A10383E191E00E940C0264EF71E080E0CB
:1009000090E0D4CF90E080E00E94910580930001B8
:100910000E94F90262E081E00E94A10385E391E078
:100920000E940C0262E089E00E94A1036091000134
:1009300070E090E080E04AE00E9419020E94C50148
:10094000C82F8823D9F362E089E00E94A103609157
:10095000000170E090E080E04AE00E941902C2309D
:1009600009F1C33051F0C13049F76091000190E0C6
:1009700080E00E9499050E94DC03C0910001CC3305
:1009800070F4CF5FC093000162E089E00E94A10390
:100990006C2F70E090E080E04AE00E9419020E9413
:1009A000FD01CCCFC0910001C630C8F3C150EACFE1
:1009B0001F920F920FB60F9211242F933F938F9394
:1009C0009F93AF93BF9380913F0190914001A0917D
:1009D0004101B091420130913E0123E0230F2D37B8
:1009E00058F50196A11DB11D20933E0180933F0152
:1009F00090934001A0934101B09342018091430143
:100A000090914401A0914501B09146010196A11D2C
:100A1000B11D8093430190934401A0934501B0938D
:100A20004601BF91AF919F918F913F912F910F9070
:100A30000FBE0F901F90189526E8230F0296A11D58
:100A4000B11DD2CF789484B5826084BD84B58160B5
:100A500084BD85B5826085BD85B5816085BDEEE6C6
:100A6000F0E0808181608083E1E8F0E010828081A5
:100A700082608083808181608083E0E8F0E0808113
:100A800081608083E1EBF0E0808184608083E0EB33
:100A9000F0E0808181608083EAE7F0E0808184601B
:100AA0008083808182608083808181608083808177
:100AB000806880831092C10064E084E10E94010399
:100AC00062E083E00E940C0162E082E00E940C017F
:100AD00062E081E00E940C0161E08DE00E940C0167
:100AE0000E94DC03E7E4F1E01382128285E091E0EA
:100AF0009183808388E084838FEF858389E0868378
:100B000084E0878385E0808786E0818787E082872D
:100B10001386148615861686178661E080E10C948C
:100B20000103F999FECF92BD81BDF89A992780B54E
:100B30000895262FF999FECF1FBA92BD81BD20BD21
:100B40000FB6F894FA9AF99A0FBE01960895A1E2A9
:100B50001A2EAA1BBB1BFD010DC0AA1FBB1FEE1F37
:100B6000FF1FA217B307E407F50720F0A21BB30B82
:100B7000E40BF50B661F771F881F991F1A9469F7FE
:100B800060957095809590959B01AC01BD01CF015A
:100B90000895EE0FFF1F0590F491E02D0994F8944D
:100BA000FFCF0500000000CD039401C201C1015335
:100BB000544152540054454D500054494D45004F46
:100BC0004E0054494D45204C4546543A2000464974
:0E0BD0004E49534845440054494D453A2000D3
:107E0000112484B714BE81FFF0D085E080938100F7
:107E100082E08093C00088E18093C10086E0809377
:107E2000C20080E18093C4008EE0C9D0259A86E02C
:107E300020E33CEF91E0309385002093840096BBD3
:107E4000B09BFECF1D9AA8958150A9F7CC24DD24C4
:107E500088248394B5E0AB2EA1E19A2EF3E0BF2EE7
:107E6000A2D0813461F49FD0082FAFD0023811F036
:107E7000013811F484E001C083E08DD089C08234E0
:107E800011F484E103C0853419F485E0A6D080C0E4
:107E9000853579F488D0E82EFF2485D0082F10E0AE
:107EA000102F00270E291F29000F111F8ED06801E7
:107EB0006FC0863521F484E090D080E0DECF843638
:107EC00009F040C070D06FD0082F6DD080E0C81688
:107ED00080E7D80618F4F601B7BEE895C0E0D1E017
:107EE00062D089930C17E1F7F0E0CF16F0E7DF06D8
:107EF00018F0F601B7BEE89568D007B600FCFDCFD4
:107F0000A601A0E0B1E02C9130E011968C91119780
:107F100090E0982F8827822B932B1296FA010C0160
:107F200087BEE89511244E5F5F4FF1E0A038BF0790
:107F300051F7F601A7BEE89507B600FCFDCF97BE46
:107F4000E89526C08437B1F42ED02DD0F82E2BD052
:107F50003CD0F601EF2C8F010F5F1F4F84911BD097
:107F6000EA94F801C1F70894C11CD11CFA94CF0C13
:107F7000D11C0EC0853739F428D08EE10CD085E9AC
:107F80000AD08FE07ACF813511F488E018D01DD067
:107F900080E101D065CF982F8091C00085FFFCCF94
:107FA0009093C60008958091C00087FFFCCF809118
:107FB000C00084FD01C0A8958091C6000895E0E648
:107FC000F0E098E1908380830895EDDF803219F02E
:107FD00088E0F5DFFFCF84E1DECF1F93182FE3DFCA
:107FE0001150E9F7F2DF1F91089580E0E8DFEE27F6
:047FF000FF270994CA
:027FFE00040479
:00000001FF
